:020000040800F2
:1000000000040020D1180008A11A0008A11A000855
:10001000A11A0008A11A0008A11A0008A11A0008D4
:10002000A11A0008A11A0008A11A0008D11A000894
:10003000A11A0008A11A0008A11A0008A11B0008B3
:10004000A11A0008A11A0008A11A0008A11A0008A4
:10005000A11A0008A11A0008A11A0008A11A000894
:10006000A11A0008A11A0008A11A0008E135000829
:10007000113600084136000871360008A136000824
:10008000D136000801370008A11A0008A11A00089B
:10009000A11A0008A11A0008A11A0008A11A000854
:1000A000A11A0008A11A0008A11A0008A11A000844
:1000B000A11A0008A11A0008713C0008A11A000842
:1000C000A11A0008A11A0008A11A0008A11A000824
:1000D000A11A0008A11A000891500008A11A0008EE
:1000E000A11A0008A11A0008A11A0008A11A000804
:1000F000A11A0008A11A0008A11A00083137000847
:10010000A11A0008A11A0008A11A0008A11A0008E3
:10011000A11A0008A11A0008A11A0008A11A0008D3
:100120006137000891370008C1370008F13700082F
:1001300021380008A11A0008A11A0008A11A000815
:10014000A11A0008A11A0008A11A00080147000816
:100150005138000881380008B1380008A11A000899
:10016000A11A0008A11A0008A11A0008A11A000883
:10017000A11A0008A11A0008A11A0008A11A000873
:08018000A11A0008A11A0008F1
:1001900030B5474D474C83B002F0EAFB01F070FDEB
:1001A00006F0AEFF284602F0C3FD2146284602F0C5
:1001B000EFFD2368D96B8A6B22F400238B634FF425
:1001C0007A7001F09DFF20683B4902F021FF24680E
:1001D0003A48E36B996B41F400229A63002102F0E4
:1001E000C7FC0020C4F20200042140F2823203F076
:1001F0000FFF002040F28232C4F20200082103F017
:1002000007FF2F482F4902F093FE2F482F4902F095
:10021000F7FB4FF44060C4F202004FF480514FF4FA
:10022000817203F0F5FE4FF44060C4F202004FF417
:1002300000514FF4817203F0EBFE4FF44060C4F2C2
:1002400002004FF480414FF4817203F0E1FE4FF45D
:100250004060C4F202004FF400414FF48172002468
:1002600003F0D6FE00941A481A4B4FF498714A22B4
:1002700001F02EFF44B1207F0E2813D04FF4FA7006
:1002800001F03EFF002CF6D1D5F8543219680A78F7
:10029000042AF3D110484FF49661402206F038FF4B
:1002A0000446EBE7204601F07BFF0024E6E700BFB1
:1002B00030170020D0790108F07801082C150020B3
:1002C000C8140020507B01080C130020507C01084A
:1002D00000160020416F0008807C0108AFF3008009
:1002E00081F0004102E000BF83F0004330B54FEAE7
:1002F00041044FEA430594EA050F08BF90EA020F54
:100300001FBF54EA000C55EA020C7FEA645C7FEAE6
:10031000655C00F0E2804FEA5454D4EB5555B8BF09
:100320006D420CDD2C4480EA020281EA030382EA7A
:10033000000083EA010180EA020281EA0303362D0C
:1003400088BF30BD11F0004F4FEA01314FF4801CDF
:100350004CEA113102D0404261EB410113F0004FF1
:100360004FEA03334CEA133302D0524263EB4303A8
:1003700094EA050F00F0A780A4F10104D5F1200E46
:100380000DDB02FA0EFC22FA05F2801841F10001A1
:1003900003FA0EF2801843FA05F359410EE0A5F175
:1003A00020050EF1200E012A03FA0EFC28BF4CF0A6
:1003B000020C43FA05F3C01851EBE37101F000455C
:1003C00007D54FF0000EDCF1000C7EEB00006EEB69
:1003D0000101B1F5801F1BD3B1F5001F0CD34908F3
:1003E0005FEA30004FEA3C0C04F101044FEA44524A
:1003F00012F5800F80F09A80BCF1004F08BF5FEAD1
:10040000500C50F1000041EB045141EA050130BDB0
:100410005FEA4C0C404141EB010111F4801FA4F153
:100420000104E9D191F0000F04BF01460020B1FAA8
:1004300081F308BF2033A3F10B03B3F120020CDAE0
:100440000C3208DD02F1140CC2F10C0201FA0CF0BE
:1004500021FA02F10CE002F11402D8BFC2F1200C23
:1004600001FA02F120FA0CFCDCBF41EA0C019040D9
:10047000E41AA2BF01EB0451294330BD6FEA040422
:100480001F3C1CDA0C340EDC04F11404C4F120020D
:1004900020FA04F001FA02F340EA030021FA04F31F
:1004A00045EA030130BDC4F10C04C4F1200220FA76
:1004B00002F001FA04F340EA0300294630BD21FAB4
:1004C00004F0294630BD94F0000F83F4801306BF7A
:1004D00081F480110134013D4EE77FEA645C18BF6E
:1004E0007FEA655C29D094EA050F08BF90EA020F05
:1004F00005D054EA000C04BF1946104630BD91EAFD
:10050000030F1EBF0021002030BD5FEA545C05D1FF
:100510004000494128BF41F0004130BD14F580043E
:100520003CBF01F5801130BD01F0004545F0FE41B2
:1005300041F470014FF0000030BD7FEA645C1ABFE7
:10054000194610467FEA655C1CBF0B46024650EA1E
:10055000013406BF52EA033591EA030F41F400214A
:1005600030BD00BF90F0000F04BF0021704730B5D0
:100570004FF4806404F132044FF000054FF00001A5
:1005800050E700BF90F0000F04BF0021704730B566
:100590004FF4806404F1320410F0004548BF40423B
:1005A0004FF000013EE700BF42004FEAE2014FEA90
:1005B00031014FEA02701FBF12F07F4393F07F4F6B
:1005C00081F06051704792F0000F14BF93F07F4F9D
:1005D000704730B54FF4607401F0004521F00041E0
:1005E00020E700BF50EA010208BF704730B54FF066
:1005F00000050AE050EA010208BF704730B511F06B
:10060000004502D5404261EB41014FF4806404F1A2
:1006100032045FEA915C3FF4DCAE4FF003025FEA24
:10062000DC0C18BF03325FEADC0C18BF033202EBAC
:10063000DC02C2F1200300FA03FC20FA02F001FA06
:1006400003FE40EA0E0021FA02F11444C1E600BFA5
:1006500070B54FF0FF0C4CF4E06C1CEA11541DBF58
:100660001CEA135594EA0C0F95EA0C0F00F0DEF823
:100670002C4481EA030621EA4C5123EA4C5350EA08
:10068000013518BF52EA033541F4801143F4801359
:1006900038D0A0FB02CE4FF00005E1FB02E506F0EA
:1006A0000042E0FB03E54FF00006E1FB03569CF03F
:1006B000000F18BF4EF0010EA4F1FF04B6F5007F45
:1006C00064F5407404D25FEA4E0E6D4146EB0606B7
:1006D00042EAC62141EA55514FEAC52040EA5E5040
:1006E0004FEACE2EB4F1FD0C88BFBCF5E06F1ED8EA
:1006F000BEF1004F08BF5FEA500E50F1000041EB21
:10070000045170BD06F0004646EA010140EA0200CD
:1007100081EA0301B4EB5C04C2BFD4EB0C0541EAEF
:10072000045170BD41F480114FF0000E013C00F304
:10073000AB8014F1360FDEBF002001F0004170BD28
:10074000C4F10004203C35DA0C341BDC04F1140441
:10075000C4F1200500FA05F320FA04F001FA05F2CD
:1007600040EA020001F0004221F0004110EBD3709A
:1007700021FA04F642EB06015EEA430E08BF20EAC6
:10078000D37070BDC4F10C04C4F1200500FA04F369
:1007900020FA05F001FA04F240EA020001F00041FB
:1007A00010EBD37041F100015EEA430E08BF20EA6E
:1007B000D37070BDC4F1200500FA05F24EEA020EB6
:1007C00020FA04F301FA05F243EA020321FA04F0E5
:1007D00001F0004121FA04F220EA020000EBD3709C
:1007E0005EEA430E08BF20EAD37070BD94F0000F9C
:1007F0000FD101F00046400041EB010111F4801FD0
:1008000008BF013CF7D041EA060195F0000F18BF80
:10081000704703F00046520043EB030313F4801FBC
:1008200008BF013DF7D043EA0603704794EA0C0F76
:100830000CEA135518BF95EA0C0F0CD050EA41068C
:1008400018BF52EA4306D1D181EA030101F0004109
:100850004FF0000070BD50EA410606BF1046194631
:1008600052EA430619D094EA0C0F02D150EA01363D
:1008700013D195EA0C0F05D152EA03361CBF10467E
:1008800019460AD181EA030101F0004141F0FE411D
:1008900041F470014FF0000070BD41F0FE4141F4A1
:1008A000780170BD70B54FF0FF0C4CF4E06C1CEAA1
:1008B00011541DBF1CEA135594EA0C0F95EA0C0F56
:1008C00000F0A7F8A4EB050481EA030E52EA033511
:1008D0004FEA013100F088804FEA03334FF0805532
:1008E00045EA131343EA12634FEA022245EA11155F
:1008F00045EA10654FEA00260EF000419D4208BF10
:10090000964244F1FD0404F5407402D25B084FEABC
:100910003202B61A65EB03055B084FEA32024FF468
:1009200080104FF4002CB6EB020E75EB030E22BFC5
:10093000B61A754640EA0C005B084FEA3202B6EB85
:10094000020E75EB030E22BFB61A754640EA5C0034
:100950005B084FEA3202B6EB020E75EB030E22BFC4
:10096000B61A754640EA9C005B084FEA3202B6EBC5
:10097000020E75EB030E22BFB61A754640EADC0084
:1009800055EA060E18D04FEA051545EA16754FEAE6
:1009900006164FEAC30343EA52734FEAC2025FEA04
:1009A0001C1CC0D111F4801F0BD141EA00014FF093
:1009B00000004FF0004CB6E711F4801F04BF014364
:1009C0000020B4F1FD0C88BFBCF5E06F3FF6AFAE80
:1009D000B5EB030C04BFB6EB020C5FEA500C50F110
:1009E000000041EB045170BD0EF0004E4EEA113193
:1009F00014EB5C04C2BFD4EB0C0541EA045170BD9A
:100A000041F480114FF0000E013C90E645EA060EDD
:100A10008DE60CEA135594EA0C0F08BF95EA0C0F0B
:100A20003FF43BAF94EA0C0F0AD150EA01347FF453
:100A300034AF95EA0C0F7FF425AF104619462CE72A
:100A400095EA0C0F06D152EA03353FF4FDAE10468D
:100A5000194622E750EA410618BF52EA43067FF4DE
:100A6000C5AE50EA41047FF40DAF52EA43057FF46E
:100A7000EBAE12E7000000000000000000000000E4
:100A80004FF0FF3C06E000BF4FF0010C02E000BF5A
:100A90004FF0010C4DF804CD4FEA410C7FEA6C5C3D
:100AA0004FEA430C18BF7FEA6C5C1BD001B050EAE0
:100AB000410C0CBF52EA430C91EA030F02BF90EACB
:100AC000020F0020704710F1000F91EA030F58BF8A
:100AD000994208BF90422CBFD8176FEAE37040F0EC
:100AE000010070474FEA410C7FEA6C5C02D150EA8A
:100AF000013C07D14FEA430C7FEA6C5CD6D152EA45
:100B0000033CD3D05DF8040B704700BF8446104609
:100B100062468C461946634600E000BF01B5FFF708
:100B2000B7FF002848BF10F1000F01BD4DF808EDD8
:100B3000FFF7F4FF0CBF012000205DF808FB00BFA9
:100B40004DF808EDFFF7EAFF34BF012000205DF803
:100B500008FB00BF4DF808EDFFF7E0FF94BF012050
:100B600000205DF808FB00BF4DF808EDFFF7CEFF51
:100B700094BF012000205DF808FB00BF4DF808ED90
:100B8000FFF7C4FF34BF012000205DF808FB00BF61
:100B90004FEA410212F5001215D211D56FF47873A5
:100BA000B3EB625212D94FEAC12343F0004343EA48
:100BB000505311F0004F23FA02F018BF4042704723
:100BC0004FF00000704750EA013005D111F00040AD
:100BD00008BF6FF0004070474FF00000704700BF43
:100BE0004A0011D212F5001211D20DD56FF47873AC
:100BF000B3EB62520ED44FEAC12343F0004343EA01
:100C0000505323FA02F070474FF00000704750EA4B
:100C1000013002D14FF0FF3070474FF000007047B5
:100C20004FEA4102B2F1E04324BFB3F5001CDCF10E
:100C3000FE5C0DD901F0004C4FEAC0024CEA507046
:100C4000B2F1004F40EB830008BF20F00100704775
:100C500011F0804F21D113F13872BCBF01F0004078
:100C6000704741F480114FEA5252C2F11802C2F1AA
:100C7000200C10FA0CF320FA02F018BF40F001002B
:100C80004FEAC1234FEAD32303FA0CFC40EA0C00DD
:100C900023FA02F34FEA4303CCE77FEA625307D11A
:100CA00050EA01331EBF4FF0FE4040F44000704751
:100CB00001F0004040F0FE4040F40000704700BFEB
:100CC00080F0004002E000BF81F0004142001FBF01
:100CD0005FEA410392EA030F7FEA226C7FEA236C0A
:100CE0006AD04FEA1262D2EB1363C1BFD2184140FF
:100CF00048404140B8BF5B42192B88BF704710F095
:100D0000004F40F4000020F07F4018BF404211F037
:100D1000004F41F4000121F07F4118BF494292EA9F
:100D2000030F3FD0A2F1010241FA03FC10EB0C00CB
:100D3000C3F1200301FA03F100F0004302D5494258
:100D400060EB4000B0F5000F13D3B0F1807F06D305
:100D500040084FEA310102F10102FE2A51D2B1F1FD
:100D6000004F40EBC25008BF20F0010040EA0300F2
:100D70007047490040EB000010F4000FA2F101029F
:100D8000EDD1B0FA80FCACF1080CB2EB0C0200FA29
:100D90000CF0AABF00EBC25052421843BCBFD04077
:100DA0001843704792F0000F81F4000106BF80F4F1
:100DB00000000132013BB5E74FEA41037FEA226CB4
:100DC00018BF7FEA236C21D092EA030F04D092F07F
:100DD000000F08BF0846704790EA010F1CBF0020B3
:100DE000704712F07F4F04D1400028BF40F0004010
:100DF000704712F100723CBF00F50000704700F030
:100E0000004343F0FE4040F4000070477FEA226256
:100E100016BF08467FEA23630146420206BF5FEA27
:100E2000412390EA010F40F4800070474FF0000327
:100E300004E000BF10F0004348BF40425FEA000CEE
:100E400008BF704743F0964301464FF000001CE096
:100E500050EA010208BF70474FF000030AE000BFEC
:100E600050EA010208BF704711F0004302D540422A
:100E700061EB41015FEA010C02BF8446014600209C
:100E800043F0B64308BFA3F18053A3F50003BCFAB7
:100E90008CF2083AA3EBC25310DB01FA02FC634464
:100EA00000FA02FCC2F12002BCF1004F20FA02F26B
:100EB00043EB020008BF20F00100704702F120025E
:100EC00001FA02FCC2F1200250EA4C0021FA02F2BF
:100ED00043EB020008BF20EADC707047000000000E
:100EE0004FF0FF0C1CEAD0521EBF1CEAD15392EA0D
:100EF0000C0F93EA0C0F6FD01A4480EA010C4002E9
:100F000018BF5FEA41211ED04FF0006343EA501042
:100F100043EA5111A0FB01310CF00040B1F5000F84
:100F20003EBF490041EAD3715B0040EA010062F133
:100F30007F02FD2A1DD8B3F1004F40EBC25008BF1D
:100F400020F00100704790F0000F0CF0004C08BF3B
:100F500049024CEA502040EA51207F3AC2BFD2F108
:100F6000FF0340EAC250704740F400004FF0000316
:100F7000013A5DDC12F1190FDCBF00F00040704750
:100F8000C2F10002410021FA02F1C2F1200200FA8E
:100F900002FC5FEA310040F1000053EA4C0308BF55
:100FA00020EADC70704792F0000F00F0004C02BFA6
:100FB000400010F4000F013AF9D040EA0C0093F021
:100FC000000F01F0004C02BF490011F4000F013B7B
:100FD000F9D041EA0C018FE70CEAD15392EA0C0FE9
:100FE00018BF93EA0C0F0AD030F0004C18BF31F054
:100FF000004CD8D180EA010000F00040704790F02A
:10100000000F17BF90F0004F084691F0000F91F0CD
:10101000004F14D092EA0C0F01D142020FD193EA93
:101020000C0F03D14B0218BF084608D180EA01001B
:1010300000F0004040F0FE4040F40000704740F0F7
:10104000FE4040F4400070474FF0FF0C1CEAD052C5
:101050001EBF1CEAD15392EA0C0F93EA0C0F69D021
:10106000A2EB030280EA010C49024FEA402037D08C
:101070004FF0805343EA111143EA10130CF0004083
:101080008B4238BF5B0042F17D024FF4000C8B4273
:1010900024BF5B1A40EA0C00B3EB510F24BFA3EB53
:1010A000510340EA5C00B3EB910F24BFA3EB910323
:1010B00040EA9C00B3EBD10F24BFA3EBD10340EA7D
:1010C000DC001B0118BF5FEA1C1CE0D1FD2A3FF6C3
:1010D00050AF8B4240EBC25008BF20F00100704778
:1010E0000CF0004C4CEA50207F32C2BFD2F1FF031B
:1010F00040EAC250704740F400004FF00003013A4C
:1011000037E792F0000F00F0004C02BF400010F4EF
:10111000000F013AF9D040EA0C0093F0000F01F003
:10112000004C02BF490011F4000F013BF9D041EA25
:101130000C0195E70CEAD15392EA0C0F08D1420258
:101140007FF47DAF93EA0C0F7FF470AF084676E72B
:1011500093EA0C0F04D14B023FF44CAF08466EE704
:1011600030F0004C18BF31F0004CCAD130F00042D2
:101170007FF45CAF31F000437FF43CAF5FE700BF2A
:101180004FF0FF3C06E000BF4FF0010C02E000BF53
:101190004FF0010C4DF804CD4FEA40024FEA4103F5
:1011A0007FEA226C18BF7FEA236C11D001B052EAAB
:1011B000530C18BF90EA010F58BFB2EB030088BF71
:1011C000C81738BF6FEAE17018BF40F001007047E0
:1011D0007FEA226C02D15FEA402C05D17FEA236CC2
:1011E000E4D15FEA412CE1D05DF8040B704700BF09
:1011F000844608466146FFE70FB5FFF7C9FF0028A0
:1012000048BF10F1000F0FBD4DF808EDFFF7F4FFD8
:101210000CBF012000205DF808FB00BF4DF808ED71
:10122000FFF7EAFF34BF012000205DF808FB00BF94
:101230004DF808EDFFF7E0FF94BF012000205DF8B6
:1012400008FB00BF4DF808EDFFF7D2FF94BF012067
:1012500000205DF808FB00BF4DF808EDFFF7C8FF60
:1012600034BF012000205DF808FB00BF0000000033
:101270004FEA4002B2F1FE4F0FD34FF09E03B3EBA3
:1012800012620DD94FEA002343F0004310F0004FE3
:1012900023FA02F018BF404270474FF00000704739
:1012A00012F1610F01D1420205D110F0004008BFD8
:1012B0006FF0004070474FF00000704700000000E2
:1012C0004BB942B9002908BF002802D04FF0FF31C6
:1012D000084600F03DB882B0EC462DE9005000F021
:1012E0001DF8DDF804E002B00CBC704700000000FF
:1012F000F8B5164604460D461F4600F031F806FBC9
:1013000001F300FB0737A6FB0023FB18A21A65EBCD
:101310000303069CC4E90023F8BD00BFF8B51646D8
:1013200004460D461F4600F07BF900FB07F7A0FBC3
:10133000062306FB0177FB18A21A65EB0303069C44
:10134000C4E90023F8BD00BF000000000000000059
:10135000704700BF00000000000000000000000017
:1013600000292DE9F00F1D46C0F29D800024002DBC
:10137000C0F2948080460F4694461E46E3BB8A42E4
:1013800055D9B2FA82F747B1C7F1200520FA05F620
:1013900001FA07F1BA403143B840170CB1FBF7F638
:1013A000030C1FFA82FC07FB16110CFB06F543EA3F
:1013B00001439D4208D9711E9B1880F013819D4204
:1013C00040F21081023E9B18591BB1FBF7F507FB59
:1013D000151380B20CFB05FC40EA03418C4507D98C
:1013E0006B1E8A1880F00081944540F2FD80023D1A
:1013F00045EA0641002503E08B420CD90025294629
:101400000A462B4614B1524263EB43031046194679
:10141000BDE8F00F7047B3FA83F5002D40F08780E8
:101420008B4201D38242EAD800250121E8E712B9B4
:101430000126B6FBF2F2B2FA82F6002E39D18E1AEC
:10144000130C1FFA82FC0125B6FBF3F703FB1761AF
:101450004FEA10490CFB07F849EA0146B04506D9A6
:10146000791EB61802D2B04500F2D3800F46C8EB01
:101470000606B6FBF3F103FB116380B20CFB01FC23
:1014800040EA03439C4506D94E1E9A1802D2944561
:1014900000F2C280314641EA0741B1E7E4435242DB
:1014A00063EB430366E7404261EB41014FF0FF34D9
:1014B0005DE7B240C6F1200921FA09F720FA09F5E3
:1014C000130C01FA06F1B7FBF3F845EA01091FFA1C
:1014D00082FC03FB18774FEA19410CFB08F541EA3F
:1014E0000747B040BD420AD9BF1808F1FF3680F067
:1014F0008E80BD4240F28B80A8F10208BF18791B94
:10150000B1FBF3F503FB15171FFA89F90CFB05F680
:1015100049EA07418E4206D96F1E891871D28E4260
:101520006FD9023D89188E1B45EA08458CE7C5F145
:10153000200122FA01F306FA05F61E4327FA01F20A
:101540004FEA164907FA05F720FA01F1B2FBF9F85C
:101550000F433B0C1FFA86FA09FB18220AFB08FB13
:1015600043EA024293450CFA05FC08D9921908F1A6
:10157000FF314AD2934548D9A8F102089219CBEB22
:101580000203B3FBF9F109FB1132BFB20AFB01FA06
:1015900047EA02439A4506D94A1E9B1933D29A4517
:1015A00031D902399B1941EA08410F0C1FFA8CF816
:1015B00008FB07F68AB24FEA1C4C08FB02F80CFB4A
:1015C000026202EB18420CFB07FC964288BF0CF546
:1015D000803CCAEB03030CEB124C63450ED305D0E1
:1015E00000250DE70E46EFE61D4601E71FFA88F8D5
:1015F00000FA05F008EB0245A842F1D201390025B6
:10160000FEE63D468FE71146CDE78846B7E7B04690
:1016100075E7023FB6182AE702393CE700000000F0
:101620002DE9F007144605460E46002B3DD18A42AF
:1016300049D9B2FA82F747B1C7F1200120FA01F285
:1016400006FA07F6BC401643BD40220CB6FBF2F08A
:101650002F0CA1B202FB106601FB00F347EA06461D
:10166000B34208D9471E361980F0F880B34240F2E1
:10167000F58002383619F61AB6FBF2F302FB136254
:10168000ADB201FB03F145EA0242914207D95E1E69
:10169000121980F0E580914240F2E280023B43EA79
:1016A00000400021BDE8F00770478B4243D8B3FAF1
:1016B00083F4002C42D18B4202D3824200F2DF80BD
:1016C00000210120EEE712B90127B7FBF2F4B4FACA
:1016D00084F2002A40F088800A1B230CA7B2012163
:1016E000B2FBF3F603FB16224FEA154C07FB06F09C
:1016F0004CEA0242904207D9121906F1FF3C02D28D
:10170000904200F2CE806646121AB2FBF3F003FB61
:101710001023ADB207FB00F745EA03439F4207D908
:10172000421E1B1980F09E809F4240F29B8002382F
:1017300040EA0640B6E700210846B3E7C4F12006B8
:1017400022FA06F503FA04F32B434FEA134C21FA6D
:1017500006F501FA04F120FA06F6B5FBFCF746EAB5
:10176000010A1FFA83F80CFB17554FEA1A4108FBD0
:1017700007F941EA0545A94502FA04F203D97E1E9C
:10178000ED187FD33746C9EB0501B1FBFCF60CFB26
:1017900016151FFA8AFA08FB06F84AEA0541884539
:1017A00003D9751EC91873D32E4646EA0746370C6F
:1017B0001FFA82FC0CFB07F5120CB3B20CFB03FC06
:1017C00002FB035303EB1C4302FB07F29D4288BF5D
:1017D00002F58032C8EB010102EB134291424BD378
:1017E00042D0304600215DE79440C2F1200521FA45
:1017F00005F6230C20FA05F701FA02F1B6FBF3FC1B
:1018000039430D0CA7B203FB1C6645EA064607FBED
:101810000CF8B04500FA02F508D936190CF1FF3082
:101820003DD2B0453BD9ACF1020C3619C8EB0602EB
:10183000B2FBF3F003FB10268AB242EA064207FB32
:1018400000F1914206D9461E121926D2914224D99E
:1018500002381219521A40EA0C4141E738460AE7A9
:1018600033461CE7104663E71FFA8CFC00FA04F0CD
:101870000CEB03439842B4D2701E002112E72146BC
:1018800020460FE7A9457FF67DAF023FED187AE7C6
:10189000884589D9023EC91887E73046DAE7844689
:1018A000C4E7023E12192FE700000000000000000C
:1018B000704700BFAFF30080AFF30080AFF300804C
:1018C000FEE700BFAFF30080AFF30080AFF300800E
:1018D00072B6644C84F30988022383F31488BFF33F
:1018E0006F8F61486149884218D2CA1C051D531B7D
:1018F00023F00302034610184FF05531834219605C
:10190000C2F380020AD01AB185422B46296005D065
:101910001D1D5960083383426960F9D15448A042C3
:1019200018D25449041D0A1B22F003050346281847
:101930004FF0553183421960C5F380020AD01AB1C5
:1019400084422346216005D01D1D5960083383421F
:101950006960F9D103F0A4FC4749484881421BD291
:10196000C61C0C1D321B464822F00302161D0568DA
:101970000423B3420D60C2F380020DD022B145684A
:101980000823B342256007D01A1D1D5884585D50A6
:101990000833B3428C50F7D13A483B49884217D2BA
:1019A000CB1C041D1A1B22F0030503462818002136
:1019B00083421960C5F380020AD01AB184422346DB
:1019C000216005D01D1D5960083383426960F9D13B
:1019D000FFF76EFF2D4D2E498D421DD2CC1C2E1DC2
:1019E000A71BB808471C01242A6800EA040890478E
:1019F000BC4211D0B8F1000F05D0022433689847DB
:101A0000BC42354608D0696888470234A8682E1D54
:101A100080470835BC42F6D1FEF7BAFB1D4D1E4A81
:101A200095421DD2D41C2E1DA71BBB085F1C012490
:101A3000296803EA04088847BC4211D0B8F1000FB6
:101A400005D0022430688047BC42354608D06A6819
:101A500090470234AB682E1D98470835BC42F6D13A
:101A6000FFF72EFF000800200000002000040020E7
:101A7000000400200308002000080020241100209A
:101A8000A08B010828110020F41B00208801000809
:101A9000880100088801000888010008AFF3008071
:101AA000FEE700BFAFF30080AFF30080AFF300802C
:101AB00072B6FEE7AFF30080AFF30080AFF30080B3
:101AC00000F096FA00DF00BFAFF30080AFF30080B4
:101AD000EFF30983203383F30988002383F311880C
:101AE000704700BFAFF30080AFF30080AFF300801A
:101AF00008B54FF46D43CEF200034FF44072C0F2CC
:101B0000FA520021996007201021DA6000F090F865
:101B10000A204FF4007100F08BF80B208021BDE803
:101B2000084000F085B800BFAFF30080AFF300803D
:101B3000202383F311884FF46D43CEF200035868DD
:101B400010F4006319D0EFF30983A3F1200282F3AC
:101B5000098810494FF080708A6943F8040CD07FDF
:101B600009689268896858B1914294BF00220122A5
:101B700062B1094A43F8082C704783F31188704713
:101B8000914234BF00220122002AF2D1034843F8D7
:101B9000080C704740120020C11A0008C41A00083F
:101BA00008B5202383F3118800F0A2F8002383F303
:101BB0001188BDE80840FFF7BBBF00BFAFF300804E
:101BC0002DE9F04FC1F80CD0D0F80CD0BDE8F08F63
:101BD000002383F311882846A04700F0D9FA704704
:101BE000F0B44FF461438408CEF20003C03400F037
:101BF000030553F82470ED00FF26420906FA05F6A6
:101C000027EA060601FA05F500F01F0002F1600759
:101C1000012101FA00F02E4343F8246043F8270025
:101C200043F82200F0BC7047AFF30080AFF30080B0
:101C300082084FF46D43CEF20003063200F0030039
:101C400030B4C00053F82250FF2404FA00F425EA0F
:101C5000040401FA00F10C4343F8224030BC704701
:101C6000024B034A98698261FEE700BF40120020E0
:101C7000A05D0108AFF30080AFF30080AFF30080F8
:101C800000B583B0FFF734FF00F0DAF800F060F839
:101C900000F056FD00F09CFD41F228104021C2F2F8
:101CA000000000F0B5F941F24021C2F2000101222A
:101CB00088610277002383F3118862B645F6B0503D
:101CC0008969C0F601008861009341F2701041F605
:101CD0006143C021C0F60003C2F2000000F0F8F931
:101CE00003B000BDAFF30080AFF30080AFF300801E
:101CF00038B5134B9869C27F0AB1511EC177036A88
:101D0000104C5A1C0262E0682268411CA242E16049
:101D100014D09568013D956085B91368D1685C6001
:101D20002360D560002383F311881069884720233E
:101D300083F31188226890680028EED038BD00BF78
:101D40004012002030120020AFF30080AFF300807B
:101D500041F23023C2F200034FF0FF3200205B60FB
:101D60001B609A60D8607047AFF30080AFF30080CB
:101D700070B40C4E03613468C260A568A94204D9EE
:101D80002468491BA5688D42FAD363680460B44295
:101D9000436018606060816002D0A068411AA16051
:101DA00070BC704730120020AFF30080AFF30080AA
:101DB0000368074A934203D099688268891899603A
:101DC00042681360036800215A60C160704700BF19
:101DD00030120020AFF30080AFF30080AFF300803B
:101DE000202383F31188037F0D2B11D8DFE803F044
:101DF00020101007100B101010101010100B416A5B
:101E00008A68531C8B6090E80C001A6001684B6074
:101E10004FF0FF3242628168074B002202771B6855
:101E20009A688A42FBD25968036041600860586032
:101E3000002383F31188704740120020AFF3008025
:101E400041F24023C2F2000300225B601B609A60F3
:101E50005B611B61704700BFAFF30080AFF3008090
:101E600000228168054B02771B689A688A42FBD280
:101E70005968036041600860586070474012002054
:101E800041F24023C2F2000310B499691A6808773E
:101E900014201468C87701201077104663601C6016
:101EA0009A6110BCFFF78CBEAFF30080AFF30080E7
:101EB00030B54B1C87B0054611D00B4C0B4AA369BB
:101EC00001A8FFF755FF2846FFF7DAFF049B13B17F
:101ED00001A8FFF76DFFA069406A07B030BDFFF7AA
:101EE000CFFF014CF7E700BF40120020E11D0008C2
:101EF000F0B4144F8568BE690446B068616200237F
:101F000085420CD82377394609688A689542FBD9FF
:101F100048682160606004604C60F0BC70473377B3
:101F2000394609688A689042FBD948683160706018
:101F300006604E600123204631462377BC61F0BC29
:101F4000FFF73EBE40120020AFF30080AFF30080E9
:101F50000E4B18689969026830B453601A608C6837
:101F600098610125142300220577CB770A77034671
:101F700000E01B689A68A242FBD25A680B604A6074
:101F80001160596030BCFFF71BBE00BF401200203B
:101F90000D4B18689969026830B453608C681A60F8
:101FA00001259861002305770B77034600E01B6845
:101FB0009A68A242FBD85A680B604A601160596067
:101FC00030BCFFF7FDBD00BF40120020AFF3008022
:101FD000044B1A68986991688368994200D87047E1
:101FE000FFF7D6BF40120020AFF30080AFF30080B0
:101FF000034B9869C17F09B1FFF7CABFFFF7A8BFBC
:1020000040120020AFF30080AFF30080AFF30080F8
:10201000F0B441F24024C2F2000400226569016478
:10202000046100F12C06816000F1280745614FF042
:10203000020C60610121142480F81CC04277C4772F
:10204000C26382630262817782612861876206636C
:10205000C662F0BC704700BFAFF30080AFF30080F2
:102060002DE9F00341F24025C2F20005A1F1240C54
:1020700000EB0C076969C76040F80C30069B7B6079
:1020800041F6D133C0F600033B62022303771423E9
:102090000026904600F1280900F12C02C3770123A5
:1020A0000561C0F808804161044668614677C0F860
:1020B0004080C66386630662837786610861C0F8E4
:1020C00028900263C262BDE8F0037047AFF300805E
:1020D00010B51C4682B0202383F311882346049C4C
:1020E0000094FFF7BDFF00210446FFF701FF002326
:1020F00083F31188204602B010BD00BFAFF300800B
:1021000008B50146202383F311880620FFF7D0FE8F
:10211000002383F3118808BDAFF30080AFF3008084
:1021200008B5202383F31188054BD968411A02D0E2
:102130000620FFF7BDFE002383F3118808BD00BF12
:1021400030120020AFF30080AFF30080AFF30080C7
:1021500038B50E4B9C692546606255F8280FA84299
:1021600006D00168A162FFF77BFEA06AA842F8D101
:10217000607F830704D1636922691A6121694B6119
:102180000E20BDE83840FFF77BBE00BF40120020A4
:10219000202383F31188FFF7DBBF00BFAFF300807C
:1021A0000146202383F31188827F531EDAB282779F
:1021B000002383F3118812B9037F0E2B00D07047E0
:1021C000427F02F00303012B09D0022BF7D14369B0
:1021D0000269406C1A610A69536100F0B9BB436936
:1021E00002691A6101694B6100F04ABBAFF30080DC
:1021F000F0B583B00D4617461E4600F0F9FA0446C6
:1022000090B1202383F31188089C334629463A462F
:102210000094FFF725FF0123437700210446FFF7D1
:1022200067FE002383F31188204603B0F0BD00BF92
:10223000202383F3118841F24022C2F200020023DE
:102240001069817F4A1C827783F31188704700BF31
:1022500010B5202383F31188074B04699C4209D0F1
:10226000A17F4A1CA277002383F31188FFF798FF10
:10227000204610BD0024F6E740120020AFF3008096
:102280000023406000608360704700BFAFF30080B0
:10229000F8B52F4A836894690546002B51D0A16890
:1022A0009868814206D91A7F9960042A31D0052A9C
:1022B0001CD092B128460068854203D08368A1688B
:1022C0008B42F8D24268206062604460042014604F
:1022D0006562BDE8F840FFF7D3BD93E806001160E2
:1022E000196818464A60FFF7BBFDE3E758681F68A6
:1022F0005E6A07601F68324678601268964202D0B4
:1023000090688842F9D251681A6059600B60536036
:10231000D0E758681F685E6A07601F6832467860B9
:102320001268964212D090688842F9D251681A60B9
:1023300059600B605360B368A1689A688A42B2D34F
:10234000B8E7E36B8460C360E063F8BD3246EDE755
:1023500040120020AFF30080AFF30080AFF30080A5
:1023600008B5202383F31188FFF792FF002383F33E
:10237000118808BDAFF30080AFF30080AFF3008099
:10238000154A38B59069202383F31188C46B2568FA
:10239000E368A542C3631CD0016C4BB11A689A4232
:1023A00003D09268914238BF1146DB68002BF5D10B
:1023B0002B68EA6B8160236028465C600021A56081
:1023C000E260EC63FFF794FD002383F3118820465D
:1023D00038BD0023A360F7E740120020AFF3008070
:1023E00008B5826B037F1143082B81630BD0092B47
:1023F00000D008BD426A11408A42FAD1FFF730FD91
:102400000021416208BD436A1942F7D108BD00BFEF
:1024100070B50468A04205460E4608D0201D0BC8C2
:102420003343E360FFF7DCFF2468A542F6D170BDBB
:1024300010B4024659B1084B9B69586244680D209C
:1024400083E814005360236010BCFFF731BD4FF0E8
:10245000FF3010BC704700BF40120020AFF3008077
:1024600010B4C361019B40608A180024006084603E
:1024700041618161C1600261036210BC704700BFAD
:1024800038B50446C368006863610021A042A361B7
:10249000A1600AD06FF00105026822605460FFF766
:1024A000DFFC45622068A042F6D138BDAFF3008062
:1024B000426908B5034680698242986818D00130A5
:1024C000986002F8011B19695A618A4228BFDA68CC
:1024D000186828BF5A61984208D002681A60536091
:1024E000FFF7BEFC00234362184608BD002008BD6C
:1024F0000028E4D06FF0030008BD00BFAFF30080F8
:1025000070B5202304460E4683F31188C36903B1D6
:102510009847A568204631463DB9FFF789FF002856
:10252000F7DA2B4683F3118870BDA1692269013D5A
:10253000A56011F8010B9142A16124BFE168A1617E
:10254000002383F3118870BDAFF30080AFF30080E8
:102550002DE9F0471E460446C769202383F31188FE
:102560004FF0000801F1010901EB020A0FB120460A
:10257000B847A568204631464DB9FFF759FF0028F6
:10258000F7D02B4683F311884046BDE8F087A36956
:10259000013DA56013F8012B09F8012C2069A36106
:1025A000834224BFE368A361002383F31188D145EC
:1025B00008F10108E8D0202383F3118809F101090B
:1025C000D4E700BFAFF30080AFF30080AFF300802B
:1025D00010B4C361019B40608C180060826041614F
:1025E0008161C1600461036210BC7047AFF3008079
:1025F00038B50269C368044600686361D11AA04215
:10260000A361A1600AD06FF00105036823605C60DC
:10261000FFF726FC45622068A042F6D138BD00BF16
:10262000F8B504460F461646202383F31188A568A3
:10263000204631463DB9FFF7FBFE0028F7DA2B466E
:1026400083F31188F8BD6369013DA56003F8017B40
:1026500022696361934228BFE368E16928BF63612F
:1026600009B120468847002383F311881846F8BD36
:10267000826941699142034610B5806816D0441CB6
:102680009C6012F8014B19699A618A4228BFDA6886
:10269000186828BF9A61984206D002681A60536091
:1026A000FFF7DEFB00234362204610BD0028E6D082
:1026B0006FF0020010BD00BFAFF30080AFF30080E9
:1026C0002DE9F0479A46044688461646D0F81C90F5
:1026D000202383F311880027A56820466B1EEDB1E7
:1026E000A360656918F8011B05F8011B2269656183
:1026F000954224BFE2686261B9F1000F00D0C8477B
:10270000002383F311880137013E10D0202383F387
:102710001188A56820466B1E002DE1D12046514648
:10272000FFF786FE0028D7D02B4683F31188384662
:10273000BDE8F087AFF30080AFF30080AFF3008017
:1027400041F2602241F25C234CF200010648C2F2E1
:102750000002C2F20003C2F2010120F0070021F0E2
:102760000701106019607047FB1B0020AFF3008069
:10277000202383F31188094B09491A680968073037
:1027800020F00700891A88429ABF101818600022AA
:10279000002383F311881046704700BF60120020A9
:1027A0005C120020AFF30080AFF30080AFF3008035
:1027B00041F25C2241F26023C2F20002C2F2000345
:1027C00010681968401A7047AFF30080AFF30080BB
:1027D00041F26823C2F2000342F271710022C0F696
:1027E000000103F1100019609A60DA60FFF748BD3C
:1027F000F8B5204E002818BF0646073106F1100034
:1028000021F0070506F10804FFF7AAFD00E01C46C9
:102810002368FBB15A689542F9D805F10801914245
:1028200015D84FF6F870CFF6FF70401B03EB010E82
:1028300082181868CEF8042058505D60C4F800E093
:102840001C4644F8086BFFF79BFD2046F8BD19684D
:102850002160F5E7FFF794FD32684AB105F1080001
:10286000904728B100F10804066045602046F8BD95
:102870000024EAE768120020AFF30080AFF3008085
:1028800070B50646A0F1080450F8080C00F10805E0
:102890001030FFF765FD2B46AB421A6801D0A3420A
:1028A00002D21AB1944201D31346F5E756F8041C3C
:1028B00046F8082C1C6001F1080256F8085CA018C4
:1028C000A84209D05A6802F1080019188C4211D0A8
:1028D000BDE87040FFF754BD4068A25809180831A0
:1028E00046F8041C46F8082C5A6802F1080019182A
:1028F0008C42EDD156F8040C56F8081C1218083218
:1029000083E80600E4E700BFAFF30080AFF3008088
:1029100038B50E4C002818BF044604F110000D46CF
:10292000FFF71EFDA3686BB10022144658681B68B0
:1029300012180134002BF9D105B12A60FFF720FDF0
:10294000204638BD1A461C46F6E700BF6812002034
:10295000202383F31188026800230A60016083F357
:1029600011887047AFF30080AFF30080AFF30080B1
:1029700008B501F0A5F845F66070C0F6010001F059
:102980006FFA00F02DF800F0C3F800F0C1FA00F083
:102990002FFB00F0C5F900F053F8BDE8084002F045
:1029A00087BC00BFAFF30080AFF30080AFF30080BF
:1029B0004FF48053CEF2000319465A6880188242C1
:1029C0004B6802D29A4205D970479A42F7D9984289
:1029D000F5D870479842F2D8704700BFAFF3008037
:1029E00001F086B9AFF30080AFF30080AFF3008051
:1029F0000123002103704160704700BFAFF30080E6
:102A000010B52023044683F311888B88416003812D
:102A100001F07EF902202070002383F3118810BD9D
:102A200008B5202383F3118801F0FAF9002383F31A
:102A3000118808BDAFF30080AFF30080AFF30080D2
:102A400002F056B9AFF30080AFF30080AFF300801F
:102A500008B5202383F3118802F072F9002383F371
:102A6000118808BDAFF30080AFF30080AFF30080A2
:102A700008B5202383F3118802F082F9002383F341
:102A8000118808BDAFF30080AFF30080AFF3008082
:102A90000C30FFF75DBD00BFAFF30080AFF30080E7
:102AA0000C304FF0FF33FFF753BD00BFAFF3008092
:102AB0003030FFF705BE00BFAFF30080AFF30080FA
:102AC00030304FF0FF33FFF7FBBD00BFAFF30080A6
:102AD0000C30FFF715BD00BFAFF30080AFF30080EF
:102AE0000C304FF0FF31FFF70BBD00BFAFF300809C
:102AF0003030FFF795BD00BFAFF30080AFF300802B
:102B000030304FF0FF32FFF78BBD00BFAFF30080D6
:102B100002F056BBAFF30080AFF30080AFF300804C
:102B200070B545F6D0530546C0F60103044645F896
:102B3000043B82B0656001250B46164604F1540142
:102B40001022257200F10C000094FFF789FC00941C
:102B500004F1300004F1640110223346FFF738FD20
:102B600002B070BDAFF30080AFF30080AFF3008020
:102B700010B52023044683F3118802F039FB0223A9
:102B80002372002383F3118810BD00BFAFF30080D0
:102B900038B5436904460D463BB104F10C002946A3
:102BA000FFF786FC00280BDB38BD04300421FFF75B
:102BB0002FFC04F10C002946FFF77AFC0028F3DA19
:102BC000201D8021BDE83840FFF722BCAFF3008014
:102BD00038B5046AD4F854321A681078042800D042
:102BE00038BDD189526901F002039BB2528A002B91
:102BF000F6D104F1140523CD691A091A8A42EFD8D7
:102C000083F31188D4F85402B1FBF2F302FB03F30F
:102C10000068012104F10C0200F052FA202383F332
:102C20001188D4F8543218680121BDE8384000F00A
:102C300067BA00BFAFF30080AFF30080AFF300804E
:102C400010B5046AD4F8543218680278042A00D007
:102C500010BD818901F002039BB2002BF8D1E16B1A
:102C6000206CA26B401A811AF2D083F31188D4F839
:102C700054220B461068012104F1300200F030FAB2
:102C8000202383F31188D4F8543218680121BDE859
:102C9000104000F04DBA00BFAFF30080AFF30080EA
:102CA0000C30FFF755BC00BFAFF30080AFF30080DE
:102CB0000C304FF0FF33FFF74BBC00BFAFF3008089
:102CC0003030FFF7FDBC00BFAFF30080AFF30080F2
:102CD00030304FF0FF33FFF7F3BC00BFAFF300809D
:102CE0000C30FFF70DBC00BFAFF30080AFF30080E6
:102CF0000C304FF0FF31FFF703BC00BFAFF3008093
:102D00003030FFF78DBC00BFAFF30080AFF3008021
:102D100030304FF0FF32FFF783BC00BFAFF30080CD
:102D2000704700BFAFF30080AFF30080AFF30080C7
:102D300030B545F6F0530546C0F60103044645F8A4
:102D4000043B83B0656042F6D133012504F15401A0
:102D5000257200F10C004FF48072C0F6000300945D
:102D6000FFF77EFB42F64143009404F1300004F586
:102D7000AA714FF48072C0F60003FFF729FC03B07C
:102D800030BD00BFAFF30080AFF30080AFF3008031
:102D9000202383F311880B68C0F854120222986034
:102DA0000023027283F31188704700BFAFF30080E5
:102DB00070B5856805F10C0604463046FFF760FBE8
:102DC00005F13000FFF714FC281D0121FFF720FB5F
:102DD00063690121204632465B8A00F071F9204682
:102DE0000121BDE8704000F08BB900BFAFF3008057
:102DF00090F8303003F06001202901D000207047A6
:102E000090F83120212A03D0222A09D0202AF5D196
:102E100006490722002341628262C3620120704793
:102E2000002343628362C3620120704700080020D0
:102E300070B5202305460E46846883F31188082167
:102E4000201DFFF7E5FA216CE26BA36B881AC11A0B
:102E50001CD1321D55F822305869198A43684A1E20
:102E6000134003D0002383F3118870BD83F31188CE
:102E70002846314604F1300200F032F9202383F372
:102E800011882846314600F053F9EBE7002383F31D
:102E900011880B46ECE700BFAFF30080AFF3008072
:102EA000F8B505460F468468202383F31188042172
:102EB0006018FFF7ADFA6A69A069E6696369518A2B
:102EC000321AD01A814213D8002383F31188B0FB41
:102ED000F1F301FB03F32846394604F10C0200F03C
:102EE000EFF8202383F311882846394600F008F9CB
:102EF000002383F31188F8BDAFF30080AFF30080A7
:102F0000704700BFAFF30080AFF30080AFF30080E5
:102F100001F09EBFAFF30080AFF30080AFF30080FD
:102F2000002301220270436083600C30FFF7A8B9D0
:102F300010B52023044683F31188416001F0C8FFD7
:102F400002232370002383F3118810BDAFF30080A8
:102F500008B5202383F3118802F02AF8002383F3B5
:102F6000118808BDAFF30080AFF30080AFF300809D
:102F700008B5202383F3118802F02AF8002383F395
:102F8000118808BDAFF30080AFF30080AFF300807D
:102F900038B51D460446202383F311882B460325AC
:102FA000057002F025F841F24023C2F2000302202E
:102FB0009969A160FEF764FF002383F3118838BD8F
:102FC00010B52023044683F311880323037002F015
:102FD0002FF841F24021C2F2000102208A69A2606A
:102FE000FEF74EFF002383F3118810BDAFF300807E
:102FF00001F006BCAFF30080AFF30080AFF30080B8
:10300000002301220270436083608381C381704783
:1030100038B50446202383F31188002541600561FB
:1030200045618561C56101F003FC022323702B46D5
:1030300083F3118838BD00BFAFF30080AFF3008089
:1030400070B50646506914460D4618B1002110228D
:1030500008F046F8A06918B10021102208F040F8E5
:103060002B1D3046294646F82340BDE8704001F04C
:10307000F7BC00BFAFF30080AFF30080AFF3008078
:1030800030B40C1D002550F82440A4692560E2608E
:103090006360A56030BC01F0B3BD00BFAFF300803A
:1030A00030B40C1D002550F8244064692560E260AE
:1030B0006360A56030BC01F0BBBD00BFAFF3008012
:1030C00030B40C1D50F82450AC6901256360002316
:1030D0002560E260A36030BC01F092BDAFF30080D8
:1030E00030B40C1D50F824506C6901256360002336
:1030F0002560E260A36030BC01F09ABDAFF30080B0
:1031000070B5C48944FA01F313F001060D4601D0ED
:10311000012070BD012303FA01F52C43C48101F0A5
:10312000A7FD304670BD00BFAFF30080AFF3008055
:1031300070B5848944FA01F313F001060D4601D0FD
:10314000012070BD012303FA01F52C43848101F0B5
:1031500097FD304670BD00BFAFF30080AFF3008035
:1031600010B40346002202240470028783F83A2038
:1031700080F83B208281C281026142618261C2612A
:1031800083F8202010BC01F0C3BB00BFAFF3008068
:10319000F8B50446002380F8203000F1300201F039
:1031A0001FFD6068816841B32046884728B3A56A3F
:1031B00094F8303094F8371094F8362042EA012021
:1031C000A8423CBF0546A06213F0800F2B467DD17C
:1031D000002D68D1042184F82010204629462A4673
:1031E000FFF75EFF202383F3118820462946FFF76F
:1031F0009FFF2B4683F31188F8BD94F8303013F00D
:10320000600711D00021204601F05AFD2046002120
:1032100001F04EFD63681A6812B1204605219047FF
:10322000052084F82000F8BD94F8316003F07F0297
:1032300042EA0626B6F5407F00F0F68016DDB6F5C8
:10324000C06F00F0888068DDB6F5106F00F0B180C7
:1032500040F60242964277D0B6F5006FD2D10125F2
:1032600004F13B006062A562E762A3E7022E00F072
:10327000B28064DDB6F5807F00F08680B6F5817F90
:10328000C0D194F832100029BCD194F8345015F014
:103290000F014FD02A06204600F1F58001F018FDFD
:1032A00094F8303046E0032284F8202020460021A4
:1032B000626AFFF7E5FE202383F311880021204690
:1032C000FFF71EFF002383F31188F8BD95B101219C
:1032D00084F8201020460021626AFFF7E1FE2023D7
:1032E00083F3118800212046FFF722FF002383F398
:1032F0001188F8BD022084F82000294620462A467D
:10330000FFF7BEFE202383F3118820462946FFF7EE
:10331000F7FE2B4683F31188F8BD40F20230864257
:1033200070D0B6F5A06F7FF46DAF218EB1F5A06FB0
:1033300000F0978000256562A562E5623AE7002EFD
:1033400030D0012E7FF45EAF544902250022616225
:10335000A562E2622EE7606894F8356094F8343034
:10336000456894F8331094F83220204643EA062347
:10337000A84700283FF446AF4168056894F830300C
:103380006162A562E76215E794F83220012A7FF4B2
:1033900039AF208F676220F002012187A762E762C0
:1033A0003D4607E7022504F138006062A562E66247
:1033B00000E794F8325084F83B50002D42D10321AD
:1033C000217062681568002DB4D020460221A847FC
:1033D00094F83030AEE794F8343013F0800F204684
:1033E00003F00F0131D101F0DBFB012831D00228BD
:1033F0007FF408AF2A4DA0626562E76294F830302E
:103400000546D7E694F8321000297FF4FBAE94F815
:10341000345015F00F018DD02B06204638D401F022
:1034200047FC94F8303085E794F83220012A7FF485
:10343000E9AE258F676245F002002087A762E76248
:103440003D46B7E604202070BBE701F0B9FB012838
:10345000CDD1144AA6626262E76294F830303546F4
:10346000A8E694F83230204684F83A3001F0E8FAC1
:1034700065682A6812B1204601219047032094F81C
:103480003030207056E701F02BFC94F8303051E7D3
:1034900001F016FC94F830304CE700BF105E0108D4
:1034A000205E0108305E0108AFF30080AFF30080BA
:1034B00038B590F82030012B044619D0042B10D0D9
:1034C000002101F0FDFB2046002101F0F1FB6068C6
:1034D000026812B1204605219047052184F820108A
:1034E00038BDC36A03B19847002084F8200038BD76
:1034F00090F8372090F83610856A41EA0223AB42F3
:1035000006D90269118AB5FBF1F301FB13559DB190
:10351000002102200B4684F820000A462046FFF7CF
:10352000AFFD202383F3118800212046FFF7E8FD3B
:10353000002383F3118838BD2B4629462A46FFF71E
:10354000AFFD202383F3118820462946FFF7F0FDC5
:103550002B4683F3118838BDAFF30080AFF30080B2
:1035600090F82030022B10B5044626D0032B11D042
:103570000021204601F0A4FB2046002101F098FB29
:1035800063681A6812B1204605219047052184F826
:10359000201010BD002104220B4680F820200A468E
:1035A000FFF77EFD202383F3118800212046FFF7DB
:1035B000BFFD002383F3118810BD01698B699A68F0
:1035C000002AD5D1C16A01B18847002084F82000C3
:1035D00010BD00BFAFF30080AFF30080AFF30080F9
:1035E0004FF4C043C4F2020307481968026810B5DB
:1035F0003D2401F03D019C600AB140689047BDE860
:103600001040FEF795BA00BF88120020AFF300808B
:103610004FF4C043C4F2020308481968826810B529
:103620008C0904F03D014FF474649C600AB1C068D9
:103630009047BDE81040FEF77BBA00BF881200201B
:103640004FF4C043C4F2020308481968026910B578
:103650000C0C04F03D014FF474149C600AB14069F5
:103660009047BDE81040FEF763BA00BF8812002003
:103670004FF4C043C4F2020308481968826910B5C8
:103680008C0D04F03D014FF074649C600AB1C06978
:103690009047BDE81040FEF74BBA00BF88120020EB
:1036A0004FF4C043C4F2020307485968026A10B5D8
:1036B0003D2401F03D01DC600AB1406A9047BDE85D
:1036C0001040FEF735BA00BF88120020AFF300802B
:1036D0004FF4C043C4F2020308485968826A10B527
:1036E0008C0904F03D014FF47464DC600AB1C06AD7
:1036F0009047BDE81040FEF71BBA00BF88120020BB
:103700004FF4C043C4F2020308485968026B10B575
:103710000C0C04F03D014FF47414DC600AB1406BF2
:103720009047BDE81040FEF703BA00BF88120020A2
:103730004FF4C043C4F2020308485968826B10B5C5
:103740008C0D04F03D014FF07464DC600AB1C06B75
:103750009047BDE81040FEF7EBB900BF881200208B
:103760004FF4C843C4F2020307481968026C10B54D
:103770003D2401F03D019C600AB1406C9047BDE8DA
:103780001040FEF7D5B900BF88120020AFF30080CB
:103790004FF4C843C4F2020308481968826C10B59C
:1037A0008C0904F03D014FF474649C600AB1C06C54
:1037B0009047BDE81040FEF7BBB900BF881200205B
:1037C0004FF4C843C4F2020308481968026D10B5EB
:1037D0000C0C04F03D014FF474149C600AB1406D70
:1037E0009047BDE81040FEF7A3B900BF8812002043
:1037F0004FF4C843C4F2020308481968826D10B53B
:103800008C0D04F03D014FF074649C600AB1C06DF2
:103810009047BDE81040FEF78BB900BF881200202A
:103820004FF4C843C4F2020307485968026E10B54A
:103830003D2401F03D01DC600AB1406E9047BDE8D7
:103840001040FEF775B900BF88120020AFF300806A
:103850004FF4C843C4F2020308485968826E10B599
:103860008C0904F03D014FF47464DC600AB1C06E51
:103870009047BDE81040FEF75BB900BF88120020FA
:103880004FF4C843C4F2020308485968026F10B5E8
:103890000C0C04F03D014FF47414DC600AB1406F6D
:1038A0009047BDE81040FEF743B900BF88120020E2
:1038B0004FF4C843C4F2020308485968826F10B538
:1038C0008C0D04F03D014FF07464DC600AB1C06FF0
:1038D0009047BDE81040FEF72BB900BF88120020CA
:1038E0002DE9F00F41F208358AB0C2F2000546F228
:1038F00040400295783046F21045C4F20205A0F52A
:1039000080600495C4F2020046F240450390C4F280
:10391000020546F228400695C4F2020046F27045C0
:103920000590C4F2020546F258400195C4F2020027
:1039300046F2B8450790C4F2020546F28840099560
:10394000C4F20200029D089046F2100B002041F2E2
:10395000882346F2280A46F2400946F2580846F201
:10396000700C46F2880746F2A006C2F200032860F7
:10397000C4F2020B039DCBF80000C4F2020AC4F2A9
:103980000209C4F20208C4F2020CC4F20207C4F233
:1039900002061860CAF800009860C9F800001861B3
:1039A000C8F800009861CCF800001862386098628E
:1039B000306018632860049D98632860059D186432
:1039C0002860069D98642860079D186546F210449B
:1039D00028606034019D986530342860C4F2020488
:1039E000089D18664FF4C0414FF4C8422860C4F2E5
:1039F00002019866C4F202022060099C18674FF029
:103A0000FF35206098678D60CD609560D5600AB005
:103A1000BDE8F00F704700BFAFF30080AFF3008048
:103A20002DE9F041244E447A3768012505FA04FC5B
:103A30001CEA070F3AD1214D4CEA070705EBC408F1
:103A400017F0FF0F45F83420C8F80430376007D06E
:103A50004FF46053C4F202031C6B44F400161E635F
:103A600017F47F4F19D10468266826F001052560F8
:103A7000276817F00105FBD1067A43683D2707FA4E
:103A800006F61E6021232560636192B1807A0901E8
:103A9000FEF7A6F82846BDE8F0814FF46055C4F261
:103AA00002052F6B47F480032B63DCE72846BDE853
:103AB000F0811046BDE8F081081300208812002034
:103AC0004FF46053C4F202030022196941F001006F
:103AD00030B418611A615C6944F001055D615A6196
:103AE000996941F0010098619A611C6A1C621A622E
:103AF0005D6A4EF21001CEF2000149F23F04C0F2BD
:103B000002044EF6F05045F001055D62CEF2000071
:103B10005A624C6007248A600C60C4684FF480517C
:103B2000CEF2000144F08074C460086840F00100E7
:103B30000860186C4FF4E041C4F2000140F080507E
:103B40001864086840F480700860196F01F44070D0
:103B5000B0F5007F03D04FF4803119671A674FF436
:103B60006053C4F202031A6F120407D4186F40F4B2
:103B7000007119671A6F42F40040186730BCFFF7F4
:103B8000AFBE00BFAFF30080AFF30080AFF30080A3
:103B90004FF46052C4F202024FF4E043C4F2000357
:103BA0004FF0805111644FF4804218461A60436808
:103BB0005904FCD54FF46050C4F20200014602687B
:103BC00042F00103036008684FF460538207C4F2B7
:103BD0000203F8D5196841F480321A601946086862
:103BE0004FF460538003C4F20203F8D55A6F42F0D9
:103BF000010159671846426F4FF460539207C4F2AF
:103C00000203F8D545F20841C0F2407159601868C6
:103C100040F080721A60194608684FF460538001C2
:103C2000C4F20203F8D598684FF414424FF470516F
:103C3000C3F60802C4F20201104340F20572986014
:103C40000A60996841F002009860996801F00C00E0
:103C50004FF460520828C4F20202F6D1536C43F4C8
:103C600080415164506E40F480435366704700BFFA
:103C700038B51C4D2B691A8A9C89A4B21440E143C3
:103C800004F0020089B282B21982002A24D104F021
:103C9000040082B2DAB904F0080082B292B904F0EA
:103CA000100082B24AB9E30703D56A680D489368E9
:103CB0009847BDE83840FDF73BBF6B680948996AF3
:103CC0008847F0E76B680748196A8847E7E76B6839
:103CD000044899698847DEE76B6828461969884770
:103CE000D5E700BF0C130020AFF30080AFF30080D6
:103CF00010B541F20C34C2F200042046FEF778FE03
:103D00004FF40063C4F20003236110BDAFF30080E1
:103D10000378012B70B504465FD0036900221A8036
:103D20009A811A825A639A63DA631A645A626168E2
:103D3000E66808682589CA688C8DB6FBF0F0013802
:103D4000013D02F00F0280B2ADB2012A1885DD629A
:103D50009C8003D0022A0CBF03220022486900F095
:103D60000F0001281ED002281AD0C86900F00F00E9
:103D700001281ED002282BD0486A00F00F0001282D
:103D80001ED002281FD089681A84081C18BF012081
:103D900001229A820021988185201982188070BDA5
:103DA00042F02002C86900F00F00012842F0100222
:103DB000E0D142F48072486A00F00F000128E0D19F
:103DC00042F48052DFE742F4005242F48052DAE7D4
:103DD00042F4007242F48072EDE71048844205D04C
:103DE000236946F6680119839983A0E74FF460516F
:103DF000C4F202011E200D6C45F004060E640B6A2D
:103E0000002543F004020A620D627021FDF7E8FE0E
:103E10004FF43D40C0F20150E060E1E70C13002098
:103E200010B44468036904EBC10001F10C0403EB16
:103E300084040069626060B19A89022092B200FA3B
:103E400001F1114205D189B2C843114382B299816F
:103E50001A8210BC704700BFAFF30080AFF3008040
:103E60004FF46053C4F202031A6B6FEA52216FEAF7
:103E700041221A63196D6FEA51226FEA42211965D6
:103E800000234168C4F202034FF4806259608168E4
:103E90009960C168D9600169596141691962816994
:103EA000596201681960016AC4F202024FF40063AA
:103EB0005160416A9160816AD160C16A5161016B50
:103EC0001162416B5162C1691160C4F20203C26B9D
:103ED0005A60016C9960426CDA60816C5961C26C05
:103EE0001A62016D5962816B4FF440621960816DF5
:103EF000C4F202024FF480535160C16D9160016EB3
:103F0000D160416E5161816E1162C16E5162416D2D
:103F10001160C4F20203426F5A60816F9960C26FF0
:103F2000DA60D0F880105961D0F884201A62D0F895
:103F300088105962016F4FF4A0521960D0F89010A8
:103F4000C4F202024FF4C0535160D0F89410916053
:103F5000D0F89810D160D0F89C105161D0F8A01022
:103F60001162D0F8A4105162D0F88C101160D0F812
:103F7000AC10C4F202034FF4E0525960D0F8B01014
:103F80009960D0F8B410D960D0F8B8105961D0F861
:103F9000BC101962D0F8C0105962D0F8A810C4F251
:103FA00002021960D0F8C8305360D0F8CC1091608C
:103FB000D0F8D030D360D0F8D4105161D0F8D830D8
:103FC0001362D0F8DC105162D0F8C4104FF40053E3
:103FD0001160D0F8E420C4F202035A60D0F8E8106F
:103FE0009960D0F8EC20DA60D0F8F0105961D0F880
:103FF000F4201A62D0F8F8105962D0F8E000186086
:10400000704700BFAFF30080AFF30080AFF30080D4
:104010002DE9F00F002302F00307C2F38006C2F37C
:10402000C105C2F341144FF00F09C2F3C3124FF0A0
:10403000010A38E0D0F820B02BEA0C0C4CEA080852
:10404000C0F82080D0F804B00AFA03FC2BEA0C0870
:1040500048EA060BC0F804B04FEA430C4FF0030BDC
:10406000D0F808800BFA0CFC6FEA0C0C0CEA08087C
:1040700048EA0508C0F80880D0F80C800CEA080867
:1040800048EA0408C0F80C80D0F800800CEA080C5C
:104090004CEA070CC0F800C049081AD07600AD0001
:1040A000A400BF00013303F0070C4FEA8C0C11F0A1
:1040B000010F02FA0CF809FA0CFCEDD0072BB9D964
:1040C000D0F824B02BEA0C0C4CEA0808C0F8248085
:1040D000B8E7BDE8F00F7047AFF30080AFF30080A2
:1040E000016CC36B00222DE9F00110468F684FF080
:1040F000804C4FF0FF3617E0585055015C1902F123
:1041000058014901C4F81009C4F8086953F801803E
:10411000B8F1000F17DB58505D190132BA42C5F8EB
:10412000100BC5F8086B15D802F1480461015D5801
:10413000002DE1DA550143F801C05C19D4F80819E3
:104140008907FBD5DAE743F801C0D4F8081BC90694
:10415000FBD5E1E74FF00110C3F81C08BDE8F00102
:10416000704700BFAFF30080AFF30080AFF3008073
:10417000F8B5C46B04EB41134FF0FF32D3F8086B72
:10418000C3F8082B330705460F4603D5D4F8143877
:104190001A0715D4F30703D5D4F81408C00700D4C0
:1041A000F8BD3B1DE98955F82300012202FA07F208
:1041B00021EA0203EB81C268394628469047F8BDE0
:1041C0000A1D50F822305A689047E3E7AFF30080A9
:1041D000C26B890141F02003136110698106FCD490
:1041E0000C20FEF7E5BB00BFAFF30080AFF300800B
:1041F0002DE9F04F41F24021C2F20001D0F83CA07D
:104200008A698346904887B02023906183F31188A0
:104210004FF000089BF80030012B06D0DBF8484037
:104220009CB9DAF81450E8060FD441F24027C2F2E4
:104230000007DAF81860B96946F01002CAF81820C9
:104240000220CBF85010FDF71BFE002383F31188EA
:104250001C46DAF8140010F010073AD0DBF83C00E6
:10426000056A05F4F017B7F5802F47D0B7F5402F52
:10427000EFD105F00F06311DC5F30A125BF82130AE
:10428000D51CAE081F6AE4D000F58050721E03688A
:10429000114647F8043B02F001050123002AD8D05B
:1042A0002DB106680023511E47F8046BD1D0026877
:1042B00013B147F8042B013B0139056813B147F8E6
:1042C000045B013B0139F2D1DAF8140010F0100759
:1042D000C4D10125DBF84830A5401D42049540F0CB
:1042E000B58001340594DBF84010059A8B68D4B290
:1042F0009C42AED9202383F311888BE705F00F078A
:104300000437C5F30A165BF8272095692B68002B44
:104310003AD16968AB68EA680331CB1AF11C9B0893
:10432000890828D000F5805001F1FF3909F0010E0D
:10433000D0F800C013B142F804CB013B013919D0C9
:10434000BEF1000F07D0D0F8009013B142F8049BE3
:10435000013B01390ED0A646046813B142F8044B64
:10436000013B0139046813B142F8044B013B0139A8
:10437000F2D17446EA689019E8605BF82770B86972
:104380008568AE19866064E700F58050ED68002E00
:1043900040D03346A446032B696907D92C69A14252
:1043A00004D3EC68032B6C616969F7D8026801F8E3
:1043B000012B2C696961A14224BFE9686961012B65
:1043C00027D0D5F81490110A09F8011B2C69C5F8FB
:1043D0001490A14524BFEC686C61022B19D0D5F86C
:1043E00014E0110C0EF8011B2C69C5F814E0A64569
:1043F00024BFEC686C61032B0BD06969120E01F8C5
:10440000012B2C696961A14224BFEC686C61043BFB
:10441000C1D16446202383F31188A96828688A19CA
:10442000A842AA6009D003682B605D60FDF718FD03
:10443000C0F824802868A842F5D1FDF7C9FD002303
:1044400083F3118899E700BF105F0108202383F3ED
:104450001188DAF80860DBF84810049826F00102A9
:1044600021EA0005CAF808203B46CBF8485083F300
:104470001188271D02975BF827607269936850685E
:10448000984240F2F680DBF83C10358A6701CE197D
:10449000C01AD6F818390397854228BF05469FB23F
:1044A0000134B5EB870F059443D8260301960C46DB
:1044B0001168002953D1EB1C0198D1689F08204452
:1044C0001BD07E1E51F804EB334606F00107019E17
:1044D000043144F806E07BB12FB151F8044C0431AB
:1044E000013B046008D051F8047C076051F8046B6C
:1044F0000431023B0660F6D1D1684819D0600298B9
:104500005BF820607269946851682B199942936036
:1045100040F2B180039DDBF83C40308A6719CD1A28
:10452000D7F81869854228BF0546B1B2B5EB810FAF
:10453000BED90022202383F31188DAF8084044F022
:104540000100CAF8080032B9DAF83458049F47EA83
:104550000506CAF83468002383F31188C3E6019B7B
:10456000E118D468002D35D020692A46AE46970858
:104570004BD0A569461B48BF0336B3109F4238BFD6
:104580003B464FEA830CCCEB0202DBB12E465F1EAA
:1045900056F8049B3B46C1F8009007F0010704362B
:1045A0007BB12FB156F8047C0436013B0F6008D074
:1045B00056F8047C0F6056F8047B0436023B0F600B
:1045C000F6D16544A842A5611DD8E668A661002A17
:1045D000CDD17546202383F31188A16820684F1937
:1045E000A042A76009D0036823605C60FDF738FC37
:1045F000C0F824802068A042F5D1FDF7E9FC002333
:1046000083F311887BE7002AE3D0A66916F8013B03
:104610008642A66124BFE668A661012A27D0A76961
:1046200017F8015BB842A7619CBFE768A761022A3F
:1046300043EA05231BD0A76917F8016BB842A761AD
:104640009CBFE768A761032A43EA06430FD0A56928
:1046500015F8017B8542A56124BFE568A561043A90
:1046600043EA076303D00B60002A80D1B1E7002240
:10467000F9E7631C059301225CE700BFAFF30080FC
:10468000F8B5C46B04EB41134FF0FF32D3F808695F
:10469000C3F80829F30705460F4603D5D4F81038A8
:1046A000DA071FD4330606D50121D4F8340801FAFD
:1046B00007F7074200D1F8BD202383F31188AB6CC4
:1046C000D4F83428286D3B4322EA0707AB64C4F8CA
:1046D000347818B1FDF7C4FB00202865002383F36C
:1046E0001188F8BD0A1DB0F80CE050F82230012204
:1046F00002FA01F22EEA020282819B689847D1E712
:1047000070B53E4EF56B6B69AC691C40E1046C61A1
:104710002BD4A20448BFD5F80838230704D5706805
:10472000C16809B135488847E00629D46103D5F846
:10473000185807D5EA0749D4AB074DD4680751D4B8
:10474000290755D4220307D5EB0332D4A80336D466
:10475000690327D42A0303D4BDE87040FDF7E8B904
:1047600026480321FFF704FDF6E73046FEF7F8FC84
:1047700073681B68002BCCD0304600219847C8E7EF
:10478000202383F31188AA69306D22F01003AB61F6
:1047900020B1FDF765FB194900200865002383F36C
:1047A0001188C3E702211548FFF7E2FC2A03D3D59D
:1047B000D6E712480021FFF7DBFCA803C8D501218A
:1047C0000E48FFF7D5FC6903C4D5EBE700210B4881
:1047D000FFF756FFAB07B1D508480121FFF750FF9F
:1047E0006807ADD502210548FFF74AFF2907A9D57B
:1047F00002480321FFF744FFA4E700BF2013002075
:1048000010B541F22034C2F200042046FEF7F8FB56
:1048100045F6007100234FF0A040C0F60101E364AB
:104820002365E063216410BDAFF30080AFF3008027
:1048300070B50378C56B012B82B0064601D002B07B
:1048400070BD3048864249D0F16C0024B464002920
:1048500038D04FF4A250F46BC4F200000323E86098
:10486000C0F2202300224FF450210120C5F8003867
:10487000C5F8002EA96320612369D807FCD40C2059
:10488000FEF796F82269002AFCDA00243046AC6074
:10489000FFF726FC7168C5F81048C868C5F81448C9
:1048A000C5F81C4850B143F20803AB614FF0FF312B
:1048B0006961A86840F00103AB60C0E74FF4405263
:1048C000AA61F3E7009606F158004FF498710222AE
:1048D0000D4BFDF7C5FB3065F064BAE74FF460514E
:1048E000C4F202014A6B42F080044C634B6900221F
:1048F00043F0800048614A614320E021FDF770F9F0
:10490000A2E700BF20130020F1410008AFF30080B0
:104910002DE9F84F80460021C46BFFF759FCD8F809
:1049200040B0DBF808A04FF00061FF22C4F8001986
:104930000AF00106C4F8001B0123C4F80829C4F8D2
:10494000082BBAF1000F33D066B102235345C4F8E7
:10495000201904F51267C4F8201BC4F82829C4F8EC
:10496000282B25D85F1C03F1480903F1580003F1F7
:10497000490C03F1590E04EB431604EB47154001B3
:104980004FEA49194FEA4C1C4FEA4E1E0233534579
:1049900044F809102150C6F80829C6F8082B44F835
:1049A0000C1044F80E10C5F80829C5F8082BD9D901
:1049B000DBF80030D8F83C204FF0FF314FF0011603
:1049C0001025C4F81818C4F81C68C8F8443063628D
:1049D0001561106910F01005FBD10C20FDF7E8FF00
:1049E000D4F80038D8F8441023F4FE62C4F8002844
:1049F000A66946F44020092240F01006A66148F25C
:104A00004003C4F81028C4F814280B4AC1F200036C
:104A100001F1100041F48011C8F81020C4F8105BB7
:104A2000C4F8003BC4F81059C4F80039C8F8440071
:104A3000A162BDE8F88F00BF205F0108AFF30080DE
:104A4000C36B90F83A10D3F8002822F4FE6040EAD5
:104A50000111C3F800187047AFF30080AFF3008076
:104A60002DE9F0410F1D064650F82730C46B1A6837
:104A700002F0030002280D464FF4004853D00328EB
:104A800054D04146C1F20001C1F20408012818BF08
:104A900088466A01A0180021C0F8101BD8680028B9
:104AA00047D0588A05F15801490148EA0000605092
:104AB0004FF0010CD4F81C0805F110010CFA01F1BB
:104AC0000143C4F81C18A21899680020C2F8100904
:104AD000002941D09A8B198A8B08012A88BF534339
:104AE00005F13F00726C04EB8001981842EA034321
:104AF00070644B6030462946FFF76AFB56F8272062
:104B0000118A05F1480041EA8552430142EA080151
:104B1000E1500122D4F81C0802FA05F50543C4F857
:104B20001C58BDE8F081C1F20808B2E7C1F20C08D8
:104B3000AFE705F15801490105F1100E605820F466
:104B4000004060500121D4F81C0801FA0EF120EA5F
:104B50000100C4F81C08B6E705F13F0304EB83022B
:104B60004FF48061C0F20021516030462946FFF7C2
:104B70002FFB05F148004301E25822F40041E150C7
:104B80000123D4F81C0803FA05F520EA0505C4F84A
:104B90001C58BDE8F08100BFAFF30080AFF3008088
:104BA0005831C36B49015A5812F4004004D012F432
:104BB000001F0CBF02200120704700BFAFF3008030
:104BC0004831C36B49015A5812F4004004D012F422
:104BD000001F0CBF02200120704700BFAFF3008010
:104BE000043150F82130186A01684368116053603D
:104BF000704700BFAFF30080AFF30080AFF30080D9
:104C00000B1D10B4C46B50F823008269438A5068AE
:104C1000421ED01804EB411143F0C042B0FBF3F345
:104C200042EAC340C1F8100B10BC7047AFF30080DC
:104C30000B1D10B450F8232053695B686BB1128AC6
:104C4000C06B5C1EA418B4FBF2F200EB411143EA06
:104C5000C243C1F8103910BC7047C06B00EB411261
:104C60004FF40021C2F81019F5E700BFAFF3008040
:104C70005831C36B49015A5842F080605850704710
:104C800001F14802C36B5201985840F0044098501B
:104C90000120D3F8342800FA01F11143C3F8341885
:104CA000704700BFAFF30080AFF30080AFF3008028
:104CB0005831C36B49015A5842F40010585070479C
:104CC0004831C36B49015A5842F40010585070479C
:104CD0005831C36B49015A5822F40010585070479C
:104CE0004831C36B49015A5822F40010585070479C
:104CF0004FF42053C4F200030F4ACA20532113601B
:104D000058625962DA68D10614D4D86840F080013C
:104D1000D9601846C2684FF420535206C4F200030B
:104D2000F8D5F921C0F27F0119611961D86820F026
:104D30008002DA60704700BFC0140020AFF300802B
:104D40000E4B1A68D06840F08003D360D0684006EC
:104D5000FCD58B6863B9906820F040039360486885
:104D6000096810605160D36823F08000D0607047FC
:104D7000906840F040039360F1E700BFC01400204A
:104D800070B40D4B1A68D0688406FCD51669956A14
:104D90001369146850684C607204540C5B04621B05
:104DA0005B0C4FF47A7404FB02F20133B2FBF3F2B2
:104DB000CA60086070BC7047C0140020AFF3008068
:104DC00011F00C0F00D17047FCF772BEAFF30080FA
:104DD00011F00C0F38B5044637D1606A02681368C9
:104DE00023F0010111601568E907FCD4057A216AF6
:104DF00043680A683D2000FA05F01860136823F044
:104E0000010010601368DB07FCD46368087A4A6805
:104E10001B683D2101FA00F111609BB10420207054
:104E2000204698472278042A0CD0A06848B1002573
:104E3000A560202383F31188FDF712F82B4683F336
:104E4000118838BD02232370EFE7FCF731FEC4E779
:104E5000F8B541F2C44341F2C845C2F20005C2F2BE
:104E60000003194E4FF6FF72284641F2F844C2F291
:104E700000041A80FEF754F84FF4405116224623DE
:104E8000C4F20101C0F20162C0F2016306F124071D
:104E90002046E9612E62AA62EB626F62FEF740F87B
:104EA0004FF4605116224623A6F13C00C4F20001E3
:104EB000303EC0F20102C0F20103E161206266628D
:104EC000A262E362F8BD00BFA05E0108AFF30080FC
:104ED0000378012B10B5044627D0C3696068428966
:104EE000A06A02F4006189B2B9B1E16A20F4F0402D
:104EF00021F4F04140F4205041F42051A062E162DD
:104F000042F441720020072118801A8099801A8883
:104F100090B240F04001198010BDE16A20F4F040E9
:104F200021F4F041A062E162EAE71D4884420CD01E
:104F30001C498C421ED0206A616AE36900680968D6
:104F400003F10C0282608A60C8E70A21164A206ACF
:104F50002346FEF765FD154A606A0A212346FEF7DF
:104F60005FFD4FF46051C4F202014B6C43F4805278
:104F70004A64E0E70A210C4A206A2346FEF750FD06
:104F80000A4A606A23460A21FEF74AFD4FF460533D
:104F9000C4F202031A6C42F480401864CBE700BFED
:104FA000C8140020F8140020D14D0008C14D00089D
:104FB00043681A895868012101FA02F39AB24283C0
:104FC000704700BFAFF30080AFF30080AFF3008005
:104FD00043681A895868012101FA02F39AB20283E0
:104FE000704700BFAFF30080AFF30080AFF30080E5
:104FF000F0B4046A476A866AC56A24683868E36060
:1050000046F4806645F4806561602660C260416058
:105010000560236843F001012160026842F001034A
:105020000360F0BC704700BFAFF30080AFF30080B7
:10503000F0B4036A476AC66A1C68806A3B6841F23A
:105040002855C2F2000546F48066E5606160206084
:10505000DA6059601E60226842F001012160186820
:1050600040F001021A60F0BC704700BFAFF300804F
:105070004FF48843C4F200039A8990B240F0800153
:1050800099817047AFF30080AFF30080AFF30080E9
:10509000F8B5474B5D6FAE892C88A988A4B222076A
:1050A000B6B28FB24BD104F4807188B2002834D1EB
:1050B00004F0200293B2002B24D106F0800188B2C4
:1050C00020B104F0800293B2002B59D104F04004C7
:1050D000A4B29CB1202383F3118836481021FDF738
:1050E00097F9002383F311884FF6BF733340AB81E8
:1050F000298821F040000204130C2B80BDE8F84001
:10510000FCF716BD202383F311882948F9B2FDF777
:105110003FFD002383F31188CFE7202383F3118819
:1051200024484FF40071FDF773F9002383F31188CD
:105130002A8822F480731904080C2880B8E704F048
:10514000080082B2002A14BF80210021E30704F086
:10515000020398B248BF41F0200108B141F040017C
:1051600004F0040293B20BB141F48071202383F365
:1051700011881048FDF74CF9002383F3118892E75A
:10518000202383F311880C48FDF772FA002805DB11
:1051900081B2A980002383F3118897E7054808218D
:1051A000FDF736F926F0C00040F04002AA81F1E791
:1051B0002C150020301500205C150020AFF3008076
:1051C00010B541F22C54C2F2000445F2710220469F
:1051D0000021C0F60002FDF7A3FC4FF48843C4F29F
:1051E0000003636710BD00BFAFF30080AFF3008022
:1051F00038B5037A254C002918BF0C46012B05460B
:105200002BD04FF480506B6F2168C4F201008342B1
:1052100033D04FF4A052C4F2010293422DD04DF688
:105220008060C0F28020B0FBF1F18AB21A81A288BE
:10523000E088218942F4045240F0400080B241F0FD
:10524000010142F02C02188292B289B200209982A8
:105250009A8118801A889B8838BD0D488542D0D124
:105260004FF46051C4F2020126200A6C42F400336C
:105270000B64C021FCF7B4FCC3E74FF43D40C0F21F
:105280000150B0FBF1F18AB21A81D0E7505F0108FA
:105290002C150020AFF30080AFF30080AFF3008047
:1052A000FEF776BCAFF30080AFF30080AFF3008071
:1052B000704700BFAFF30080AFF30080AFF3008012
:1052C000F8B541F2A854C2F200040F4641F2A455C9
:1052D0000646C2F2000567F07F07FDF739FE02219E
:1052E00022462B4630462770FF276770FDF750FE99
:1052F0003046FDF73DFE6878F8BD00BFAFF3008093
:10530000F8B5A1F120030D46D9B21F29064617466C
:1053100017D85BB20724012202FA03F1CFF6DD149D
:105320000C4074B1FDF714FE064B304602211A46BC
:105330001D705F70FDF744FE3046BDE8F840FDF794
:1053400017BEF8BDA8150020AFF30080AFF30080B2
:10535000F0B4002B08BF0B46074600F10B0C00F120
:105360000A05B1FBF2F602FB161101F13004392CEB
:10537000C8BF01F13704E4B2B3FBF2F3284631466B
:1053800005F80149002BECD1C0EB0C03F9430246B0
:10539000F8184318DB070AD507F8014B12F8014F3C
:1053A00005E012F8014F7C7012F8014F5F1C3B467C
:1053B00003F8014B8342F4D1F0BC7047AFF3008097
:1053C0000EB42DE9F04F8CB015AB0DF1190C0DF1A9
:1053D000180853F8044BCDF804C0C8EB0C0C064673
:1053E0000593CDF808C0254615F8011B59B12529AC
:1053F0000ED03468A3682C4625463046984715F8E9
:10540000011B0029F3D10CB0BDE8F04F03B0704789
:1054100063782D2B00F0C9814FF000092E2B00F08E
:10542000C08120272C460599002506E00A78043122
:1054300005EB8505237802EB4505A3F13002D2B2D6
:105440000134092AF4D92A2BF0D000202E2B059103
:105450004BD06C2B55D04C2B53D0A3F141011929C3
:105460008CBF00210121A3F14402342A00F2938170
:10547000DFE812F081019101910191019101910107
:10548000910191019101910191017F01910191019E
:1054900091019101910177019101910169019101BE
:1054A000910191019101910191019101910191016C
:1054B00091012A0181019101E50091019101910180
:1054C000910191019101910191017F01910191015E
:1054D00091014F00910177019101910169010A78D1
:1054E000043100EB800302EB430014F8013BA3F10D
:1054F0003002D2B2092AF4D92A2BF0D06C2B0591B4
:10550000A9D12178002900F055810B4601340121F1
:10551000A9E7059FAA493B68002B14BF9A468A4613
:1055200004379AF80020059747F6FF73002808BF54
:105530001846002A00F064819AF80170411E0AEBB7
:10554000000B0AF1010201F00100002F73D0934516
:10555000134608D0002869D057780132002F6AD04E
:105560009345134662D1CAEB0B0BCBEB0505202705
:1055700025EAE575B9F1000F00F0B880BBF1000F26
:1055800027DDD146306819F8011B8268D3446FEAE1
:105590000A0E30460BEB0E0A9047D9450AF0010A75
:1055A00017D0BAF1000F03D0336819F8011B0BE0D4
:1055B0003068CA4682681AF8011B30469047336843
:1055C00099F801100AF101099A6830469047D945C7
:1055D000EED1002D3FF407AF31686B1E8A681D467F
:1055E0003046394603F001099047002D3FF4FBAEE9
:1055F000B9F1000F07D0316830468B6839469847BB
:10560000013D3FF4F0AE306839468268304690473D
:105610003168013D8B68304639469847013DF2D1EB
:10562000E1E65778013237B19B459CD058785A1C37
:10563000531C0028F5D1CAEB020B20274EE0059A37
:10564000D01D20F0070101F10803D1E90001059305
:10565000FBF7E6FA00218246FBF7E0FD002840F068
:10566000C780C3465046FBF703FE03900A2200237F
:1056700058460399FFF76CFE84462E200CF8010B68
:105680005046CDF800C0FAF78FFF824603988B464C
:10569000FAF778FF02460B4650465946FAF724FEC1
:1056A00045A3D3E90023FAF7D3FFFBF771FADDF83E
:1056B00000C001460A22604642F21073FFF748FE1E
:1056C000C246C8EB000B09E0059FDDF808B0396859
:1056D0003B1D05938DF818102027C246CBEB05051E
:1056E00025EAE575B9F1000F7FF448AF6D42002D52
:1056F0003FF444AF9AF800102D296ED0316830463F
:105700008B6839466FEA05099847013509F00109A8
:105710003FF434AFB9F1000F07D0326830469368D8
:105720003946984701353FF429AF306839468268D9
:1057300030469047316801358B6830463946984786
:105740000135F2D11AE71022059B71B1191D05919F
:10575000196840460023FFF7FBFDC246C8EB000B6B
:10576000BCE70A22059B0029F0D1181D1968059095
:10577000EFE70822E8E7059B1A1D19B3196805929F
:10578000002923DB40460A220023FFF7E1FDC24641
:10579000C8EB000BA2E78DF81830DDF808B0C24660
:1057A0009CE76B78302701353CE6A51CA3784FF0C9
:1057B000010933E6012156E600000000006AF840C6
:1057C00060600108196805920029DBDA2D208DF848
:1057D000180049420DF11900D5E7302F8ED13368FA
:1057E00030469A6890470AF1010A0BF1FF3B85E7C2
:1057F0002D220AF1004A8DF818200DF1190B31E71E
:10580000934620276AE700BFAFF30080AFF3008024
:1058100091E80C00C2F342312DE9F00F0729C3F3E0
:105820008055C2F300374FEA450808BF002108EB56
:10583000050B4FF0FF344FEA8709C3F3015681612E
:10584000C2F30351C2F30115B944C2F3032CC2F3EE
:10585000034701EB810A4FEA8B08C3F3023104626C
:1058600006EB8606C3F3021402F00F0207EB4A0AA6
:1058700003F00F0BC3F3032705EB85050CEB490C75
:1058800004EB840401EB810108EB4606C3F30343F8
:1058900002EB45050AF1640A0CF1FF320BEB4404FC
:1058A00007EB4101F318C5600261C0F814A0046061
:1058B00041608360BDE8F00F704700BFAFF3008028
:1058C00042692DE9F00F4CF6CD43643ACCF6CC4357
:1058D000A3FB0256F50805EB850A86B02F05A2EB5F
:1058E0004A02846907F47003160402930396002C9D
:1058F00066D06407250C04950269D0F804C0C76817
:105900008668D0F800B04CF6CD43CCF6CC4302F11B
:10591000010AA3FB0C94A3FB0A80E208C008A3FBC6
:105920000745A3FB068402EB820900EB8008E4082C
:10593000CDF81490AAEB480A04EB8408ED08CDF8E2
:105940000480DDF81480A3FB0B9305EB8509A7EB1E
:105950004907ACEB480CDDF80490DDF80C80DB085F
:105960002D01A6EB490648EA0A2A03EB83094FEA10
:105970000C2C4AEA070A4CEA064605F03007ABEB66
:10598000490924054AEA070504F44014120346EACB
:105990000906029F2643000302F4E04446EA04029B
:1059A0003D4300F480501B01049C284303F0700326
:1059B0002043134381E8090006B0BDE8F00F7047AB
:1059C0004FF46047049797E7AFF30080AFF3008090
:1059D00010B584B000230C466946009301930293EE
:1059E0000393FDF745F820466946FFF711FF04B021
:1059F00010BD00BFAFF30080AFF30080AFF30080B5
:105A000000B58FB0002301A901930293039304937F
:105A1000FDF72EF805A801A9FFF7FAFE05A805F085
:105A2000FFFC0FB000BD00BFAFF30080AFF30080FC
:105A300010B590B000230446019101A807A9039373
:105A400004930593069305F09BFA07A803A9FFF7B3
:105A500037FF204603A9FCF7FBFF10B010BD00BFC5
:105A600010B504460846FCF783FE00B110BD0C23B8
:105A700023604FF0FF3010BDAFF30080AFF3008024
:105A80002DE9F04DA0A3D3E9002386B004460D46CE
:105A9000FBF756F8002840F09980204629469AA343
:105AA000D3E90023FBF760F8002851D120462946AE
:105AB00097A3D3E90023FBF757F848B120462946BE
:105AC00095A3D3E90023FBF73BF8002840F0B08012
:105AD0002046294690A3D3E90023FBF745F8002888
